{
  "_format": "hh-sol-artifact-1",
  "contractName": "Main",
  "sourceName": "contracts/Main.sol",
  "abi": [
    {
      "anonymous": false,
      "inputs": [
        {
          "indexed": false,
          "internalType": "string",
          "name": "_val",
          "type": "string"
        },
        {
          "indexed": false,
          "internalType": "string",
          "name": "val",
          "type": "string"
        }
      ],
      "name": "ValueChanged",
      "type": "event"
    },
    {
      "inputs": [],
      "name": "getNumber",
      "outputs": [
        {
          "internalType": "uint256",
          "name": "",
          "type": "uint256"
        }
      ],
      "stateMutability": "view",
      "type": "function"
    },
    {
      "inputs": [],
      "name": "getText",
      "outputs": [
        {
          "internalType": "string",
          "name": "",
          "type": "string"
        }
      ],
      "stateMutability": "view",
      "type": "function"
    },
    {
      "inputs": [],
      "name": "getVal",
      "outputs": [
        {
          "internalType": "string",
          "name": "",
          "type": "string"
        }
      ],
      "stateMutability": "view",
      "type": "function"
    },
    {
      "inputs": [],
      "name": "getValue",
      "outputs": [
        {
          "internalType": "string",
          "name": "",
          "type": "string"
        }
      ],
      "stateMutability": "view",
      "type": "function"
    },
    {
      "inputs": [],
      "name": "getid256",
      "outputs": [
        {
          "internalType": "uint256",
          "name": "",
          "type": "uint256"
        }
      ],
      "stateMutability": "view",
      "type": "function"
    },
    {
      "inputs": [],
      "name": "getid8",
      "outputs": [
        {
          "internalType": "uint8",
          "name": "",
          "type": "uint8"
        }
      ],
      "stateMutability": "view",
      "type": "function"
    },
    {
      "inputs": [
        {
          "internalType": "uint256",
          "name": "id",
          "type": "uint256"
        }
      ],
      "name": "setNumber",
      "outputs": [],
      "stateMutability": "nonpayable",
      "type": "function"
    },
    {
      "inputs": [
        {
          "internalType": "string",
          "name": "text",
          "type": "string"
        }
      ],
      "name": "setText",
      "outputs": [],
      "stateMutability": "nonpayable",
      "type": "function"
    },
    {
      "inputs": [
        {
          "internalType": "string",
          "name": "value",
          "type": "string"
        }
      ],
      "name": "setVal",
      "outputs": [],
      "stateMutability": "nonpayable",
      "type": "function"
    },
    {
      "inputs": [
        {
          "internalType": "uint256",
          "name": "id",
          "type": "uint256"
        }
      ],
      "name": "setid256",
      "outputs": [],
      "stateMutability": "nonpayable",
      "type": "function"
    },
    {
      "inputs": [
        {
          "internalType": "uint8",
          "name": "id",
          "type": "uint8"
        }
      ],
      "name": "setid8",
      "outputs": [],
      "stateMutability": "nonpayable",
      "type": "function"
    }
  ],
  "bytecode": "0x608060405234801561001057600080fd5b50610ace806100206000396000f3fe608060405234801561001057600080fd5b50600436106100a95760003560e01c80635d3a1f9d116100715780635d3a1f9d1461013e578063b713fd401461015a578063e00fe2eb14610178578063e1cb0e5214610196578063e1d05873146101b4578063f2c9ecd8146101d0576100a9565b80630a71ef4f146100ae5780631a0a73fe146100ca5780631aae2531146100e857806320965255146101045780633fb5c1cb14610122575b600080fd5b6100c860048036038101906100c391906106d7565b6101ee565b005b6100d26101f8565b6040516100df9190610882565b60405180910390f35b61010260048036038101906100fd9190610696565b610202565b005b61010c610256565b6040516101199190610829565b60405180910390f35b61013c600480360381019061013791906106d7565b6102e8565b005b61015860048036038101906101539190610696565b610356565b005b610162610370565b60405161016f919061089d565b60405180910390f35b610180610386565b60405161018d9190610829565b60405180910390f35b61019e610418565b6040516101ab9190610829565b60405180910390f35b6101ce60048036038101906101c99190610729565b6104aa565b005b6101d86104c7565b6040516101e59190610882565b60405180910390f35b8060018190555050565b6000600154905090565b7f239747dab7046e5d3c295d335f2759559f55344dadbfa668569bb8b0f11b5c1060068260405161023492919061084b565b60405180910390a1806007908051906020019061025292919061054c565b5050565b60606007805461026590610998565b80601f016020809104026020016040519081016040528092919081815260200182805461029190610998565b80156102de5780601f106102b3576101008083540402835291602001916102de565b820191906000526020600020905b8154815290600101906020018083116102c157829003601f168201915b5050505050905090565b3073ffffffffffffffffffffffffffffffffffffffff16630a71ef4f826040518263ffffffff1660e01b81526004016103219190610882565b600060405180830381600087803b15801561033b57600080fd5b505af115801561034f573d6000803e3d6000fd5b5050505050565b806002908051906020019061036c92919061054c565b5050565b60008060009054906101000a900460ff16905090565b60606002805461039590610998565b80601f01602080910402602001604051908101604052809291908181526020018280546103c190610998565b801561040e5780601f106103e35761010080835404028352916020019161040e565b820191906000526020600020905b8154815290600101906020018083116103f157829003601f168201915b5050505050905090565b60606006805461042790610998565b80601f016020809104026020016040519081016040528092919081815260200182805461045390610998565b80156104a05780601f10610475576101008083540402835291602001916104a0565b820191906000526020600020905b81548152906001019060200180831161048357829003601f168201915b5050505050905090565b806000806101000a81548160ff021916908360ff16021790555050565b60003073ffffffffffffffffffffffffffffffffffffffff16631a0a73fe6040518163ffffffff1660e01b815260040160206040518083038186803b15801561050f57600080fd5b505afa158015610523573d6000803e3d6000fd5b505050506040513d601f19601f820116820180604052508101906105479190610700565b905090565b82805461055890610998565b90600052602060002090601f01602090048101928261057a57600085556105c1565b82601f1061059357805160ff19168380011785556105c1565b828001600101855582156105c1579182015b828111156105c05782518255916020019190600101906105a5565b5b5090506105ce91906105d2565b5090565b5b808211156105eb5760008160009055506001016105d3565b5090565b60006106026105fd846108dd565b6108b8565b90508281526020810184848401111561061a57600080fd5b610625848285610956565b509392505050565b600082601f83011261063e57600080fd5b813561064e8482602086016105ef565b91505092915050565b60008135905061066681610a6a565b92915050565b60008151905061067b81610a6a565b92915050565b60008135905061069081610a81565b92915050565b6000602082840312156106a857600080fd5b600082013567ffffffffffffffff8111156106c257600080fd5b6106ce8482850161062d565b91505092915050565b6000602082840312156106e957600080fd5b60006106f784828501610657565b91505092915050565b60006020828403121561071257600080fd5b60006107208482850161066c565b91505092915050565b60006020828403121561073b57600080fd5b600061074984828501610681565b91505092915050565b600061075d82610923565b610767818561092e565b9350610777818560208601610965565b61078081610a59565b840191505092915050565b6000815461079881610998565b6107a2818661092e565b945060018216600081146107bd57600181146107cf57610802565b60ff1983168652602086019350610802565b6107d88561090e565b60005b838110156107fa578154818901526001820191506020810190506107db565b808801955050505b50505092915050565b6108148161093f565b82525050565b61082381610949565b82525050565b600060208201905081810360008301526108438184610752565b905092915050565b60006040820190508181036000830152610865818561078b565b905081810360208301526108798184610752565b90509392505050565b6000602082019050610897600083018461080b565b92915050565b60006020820190506108b2600083018461081a565b92915050565b60006108c26108d3565b90506108ce82826109ca565b919050565b6000604051905090565b600067ffffffffffffffff8211156108f8576108f7610a2a565b5b61090182610a59565b9050602081019050919050565b60008190508160005260206000209050919050565b600081519050919050565b600082825260208201905092915050565b6000819050919050565b600060ff82169050919050565b82818337600083830152505050565b60005b83811015610983578082015181840152602081019050610968565b83811115610992576000848401525b50505050565b600060028204905060018216806109b057607f821691505b602082108114156109c4576109c36109fb565b5b50919050565b6109d382610a59565b810181811067ffffffffffffffff821117156109f2576109f1610a2a565b5b80604052505050565b7f4e487b7100000000000000000000000000000000000000000000000000000000600052602260045260246000fd5b7f4e487b7100000000000000000000000000000000000000000000000000000000600052604160045260246000fd5b6000601f19601f8301169050919050565b610a738161093f565b8114610a7e57600080fd5b50565b610a8a81610949565b8114610a9557600080fd5b5056fea26469706673582212206710672fb03b27a27e21548d2dad7219816fe7252761daced0cc814bfba6b6fc64736f6c63430008040033",
  "linkReferences": {},
  "deployedLinkReferences": {}
}